:020000040000FA
:100000002DEF03F013EF05F07CEF04F0D9CFE5FFFF
:10001000E1CFD9FF00C0E5FF01C0E5FF46EC04F0E9
:100020000001816F00018151610A14E162C000F09A
:1000300063C001F00150800F810F02E1FD0E005CF2
:1000400009E3FF0E0026012200500001626F0150FB
:100050000001636F00018151620A13E162C000F088
:1000600063C001F00150800F800F02E1040E005CBC
:1000700008E2004A012A00500001626F01500001AD
:10008000636F00018151630A14E164C000F065C030
:1000900001F00150800F810F02E1FD0E005C09E3C9
:1000A000FF0E0026012200500001646F0150000184
:1000B000656F00018151640A13E164C000F065C0FE
:1000C00001F00150800F800F02E1040E005C08E295
:1000D000004A012A00500001646F01500001656F61
:1000E00000018151650A14E166C000F067C001F0AB
:1000F0000150800F810F02E1FD0E005C09E3FF0E4D
:100100000026012200500001666F01500001676F58
:1001100000018151660A13E166C000F067C001F07A
:100120000150800F800F02E1040E005C08E2004ADB
:10013000012A00500001666F01500001676F000145
:100140008151670A14E168C000F069C001F00150F4
:10015000800F810F02E1FD0E005C09E3FF0E002617
:10016000012200500001686F01500001696F000119
:100170008151680A13E168C000F069C001F00150C4
:10018000800F800F02E1040E005C08E2004A012AA1
:1001900000500001686F01500001696F000181513A
:1001A000690A14E16AC000F06BC001F00150800FD1
:1001B000810F02E1FD0E005C09E3FF0E0026012223
:1001C000005000016A6F015000016B6F0001815106
:1001D0006A0A13E16AC000F06BC001F00150800FA1
:1001E000800F02E1040E005C08E2004A012A005080
:1001F00000016A6F015000016B6FE4CF01F0E4CFA2
:1002000000F0E4CFD9FF1200D9CFE5FFE1CFD9FF4D
:1002100000C0E5FF01C0E5FF0001703F02D0000112
:10022000712B00017151800F800F03E1F00E00016E
:10023000705D14E3006A8CB0002A016A0050010866
:10024000006E000E01560050010BF46E8C50FE0B38
:10025000F4108C6E0001706B0001716B000E0001D8
:10026000615D03E1060E0001605DD8B094D0FA6ACA
:10027000FB6A00016035FA36E834FA36FC0B8E0F63
:10028000E56E020EFA22000EFB22E450F96E53EFE7
:1002900001F06CEF01F081EF01F096EF01F0ABEFB0
:1002A00001F0C0EF01F08A808A928A948A968A9837
:1002B00000016E6B00016F6B00016351E56E000180
:1002C0006251E56EE5EC01F0E652E6520001603F56
:1002D00002D00001612B5FD08A908A828A948A962C
:1002E0008A9800016551E56E00016451E56EE5EC08
:1002F00001F0E652E6520001603F02D00001612B9E
:100300004AD08A908A928A848A968A980001675194
:10031000E56E00016651E56EE5EC01F0E652E6524D
:100320000001603F02D00001612B35D08A908A9293
:100330008A948A868A9800016951E56E00016851A5
:10034000E56EE5EC01F0E652E6520001603F02D0B6
:100350000001612B20D08A908A928A948A968A889A
:1003600000016B51E56E00016A51E56EE5EC01F0AC
:10037000E652E6520001603F02D00001612B0BD033
:100380008A908A928A948A968A98E3EC04F0000113
:10039000606B0001616B00016C51FF0F006EFF0E7E
:1003A00000016D21016E0150006E016A0050D76E90
:1003B00000016C51006E0004D66EF294E4CF01F09F
:1003C000E4CF00F0E4CFD9FF1200D9CFE5FFE1CFB1
:1003D000D9FF00C0E5FF01C0E5FF02C0E5FF03C093
:1003E000E5FF020EDBCF00F0030EDBCF01F0DC0EE9
:1003F000026E050E036E0150800F810F02E1FC0EAC
:10040000005CD8A057D00150800F800F02E1050E8C
:10041000005CD8B04FD0040E0026FA6AFB6A0034A4
:10042000FA36E834FA36FC0B380FE56E040EFA2281
:10043000000EFB22E450F96E2EEF02F033EF02F0D3
:1004400038EF02F03DEF02F042EF02F047EF02F02A
:100450004CEF02F051EF02F056EF02F0AA0E026EDE
:10046000050E036E27D0270E026E080E036E22D0F3
:10047000A50E026E0A0E036E1DD0220E026E0D0E28
:10048000036E18D0A00E026E0F0E036E13D0240E52
:10049000026E130E036E0ED0440E026E160E036E25
:1004A00009D0640E026E190E036E04D0840E026E23
:1004B0001C0E036E025000016E27035000016F23D3
:1004C000006A016A0250FF08026EFF0E0356000E1A
:1004D0000056000E0156025000016C6F03500001DF
:1004E0006D6FE4CF03F0E4CF02F0E4CF01F0E4CF8E
:1004F00000F0E4CFD9FF1200D9CFE5FFE1CFD9FF5B
:1005000000C0E5FF01C0E5FF02C0E5FF03C0E5FF55
:1005100004C0E5FF05C0E5FF06C0E5FF07C0E5FF35
:10052000020EDBCF00F0030EDBCF01F0040EDBCFB9
:1005300002F0036A046A03500024056E045001208F
:10054000066EE86A04BEE8680220076E05C0E9FF8F
:1005500006C0F3FF0750F4EC04F0056E0550E56E9D
:1005600004EC04F0E652034A042A03500024056E0A
:1005700004500120066EE86A04BEE8680220076E97
:1005800005C0E9FF06C0F3FF0750F4EC04F0056E68
:100590000550D1E1E4CF07F0E4CF06F0E4CF05F059
:1005A000E4CF04F0E4CF03F0E4CF02F0E4CF01F0B5
:1005B000E4CF00F0E4CFD9FF1200D9CFE5FFE1CFBF
:1005C000D9FF00C0E5FF01C0E5FF02C0E5FF03C0A1
:1005D000E5FF020EDBCF00F0030EDBCF01F0040ECF
:1005E000DBCF02F0050EDBCF03F0005000017B6F84
:1005F00001507C6F025000017D6F03507E6F00013F
:100600007B5100017D03F4CF01F0F3CF00F00050E7
:1006100000017F6F0150806F00017B5100017E035C
:10062000F3CF00F000017C5100017D03F3CF01F016
:10063000015000260001805100260050806F80C0CC
:10064000F3FF7F51E4CF03F0E4CF02F0E4CF01F0F9
:10065000E4CF00F0E4CFD9FF120012EEFFF022EE5B
:10066000FFF0F86AA68EA69C3E0EF66E0A0EF76E96
:10067000000EF86E0900F5CF05F00900F5CF06F081
:1006800034D00900F5CF00F00900F5CF01F00900E2
:10069000F5CF02F009000900F5CFE9FF0900F5CF19
:1006A000EAFF090009000900F5CF03F00900F5CFC2
:1006B00004F009000900F6CF07F0F7CF08F0F8CFF3
:1006C00009F000C0F6FF01C0F7FF02C0F8FF03D039
:1006D0000900F5CFEEFF0306FBE20406F9E207C0CE
:1006E000F6FF08C0F7FF09C0F8FF0506CAE20606D4
:1006F000C8E2B1EC04F0FFD7D9CFE5FFE1CFD9FFD5
:1007000000C0E5FF01C0E5FF00017451000172194E
:1007100005E1000175510001731901E002D09D98B7
:1007200028D000017551E56E00017451E56E000E90
:10073000E56E020EE56EDDEC02F0006EF3CF01F027
:10074000040EE126000E0026010E012200C0E9FF82
:1007500001C0EAFFEECF00F0EFCF01F00050AD6E28
:100760000001743F02D00001752B0001749F00014D
:10077000756B9E98E4CF01F0E4CF00F0E4CFD9FF91
:100780001200D9CFE5FFE1CFD9FF00C0E5FF01C0DE
:10079000E5FF02C0E5FF03C0E5FF00017751E56E0C
:1007A00000017651E56E000EE56E020EE56EDDECA1
:1007B00002F0006EF3CF01F0040EE126000E0026D9
:1007C000070E0122AECF02F0036A00C0E9FF01C0AC
:1007D000EAFF02C0EEFF03C0EFFF0001763F02D048
:1007E0000001772B0001769F0001776B06EC00F08B
:1007F0009E9AE4CF03F0E4CF02F0E4CF01F0E4CF1F
:1008000000F0E4CFD9FF1200D9CFE5FFE1CFD9FF47
:1008100000C0E5FF01C0E5FF02C0E5FF03C0E5FF42
:10082000020EDBCF00F000017351E56E0001725142
:10083000E56E000EE56E020EE56EDDEC02F0016E77
:10084000F3CF02F0040EE126000E0126010E022273
:10085000036A01C0E9FF02C0EAFF00C0EEFF03C067
:10086000EFFF0001723F02D00001732B0001729F65
:100870000001736B9D88E4CF03F0E4CF02F0E4CF76
:1008800001F0E4CF00F0E4CFD9FF1200D9CFE5FFAB
:10089000E1CFD9FF00C0E5FF01C0E5FF00017951BC
:1008A000E56E00017851E56E000EE56E020EE56E14
:1008B000DDEC02F0006EF3CF01F0040EE126000E35
:1008C0000026070E012200C0E9FF01C0EAFFEECFBB
:1008D00000F0EFCF01F00001783F02D00001792B4A
:1008E0000001789F0001796B0050E4CF01F0E4CF64
:1008F00000F0E4CFD9FF1200D8CFE5FFE0CFE5FF4D
:10090000E56EF3CFE5FFF4CFE5FFE9CFE5FFEACFF2
:10091000E5FFFACFE5FFFBCFE5FFD9CFE5FFE1CF5C
:10092000D9FF9EAA02D0C1EC03F09EA802D07CECB5
:1009300003F0F2A402D004EC01F0E4CFD9FFE4CF3D
:10094000FBFFE4CFFAFFE4CFEAFFE4CFE9FFE4CF17
:10095000F4FFE4CFF3FFE450E4CFE0FFE4CFD8FFAF
:100960001000F28EF28A9F0E00016C6F150E0001CE
:100970006D6F150ED76E9E0ED66ED58ED59CD59A00
:10098000D598D596D594D592D580926A806A936A87
:10099000816A946A826A956A836A9D8AD2EC04F0BD
:1009A000FFD71200D9CFE5FFE1CFD9FF948CAC8AF5
:1009B000AC98AC94948EAB8EAB88B8964D0EAF6E5F
:1009C000E4CFD9FF1200D9CFE5FFE1CFD9FF000175
:1009D0006E519F0F00016C6F150E00016F21000119
:1009E0006D6FE4CFD9FF1200E8AE04D0F3CFEAFF79
:1009F000EE501200E8BC02EF00F0E9CFF6FFF3CFB3
:100A0000F7FFF86E0900F55012000000000000002A
:100A100000000000000001000000000000000000D5
:100A2000000000000000F2CFF6FFF29EA69EA69CFA
:100A3000E9CFA9FFA680A850F6BEF28E12000100F1
:0C0A40000A0A0000600000001B0000001B
:020000040030CA
:04000000240E3E1E6E
:02000500018177
:00000001FF
