:020000040000FA
:100000009DEF01F0B6EF03F05DEF03F0D9CFE5FF10
:10001000E1CFD9FF00C0E5FF01C0E5FF02C0E5FF69
:1000200027EC03F0006E016A0050610A01E1012A29
:1000300001500DE10050630A0AE00050650A07E034
:100040000050670A04E00050690A01E054D00150F2
:100050000EE000016251EC0F016EFF0E0001632102
:10006000026E01500001626F02500001636F005088
:10007000630A0EE100016451EC0F016EFF0E0001F6
:100080006521026E01500001646F02500001656F2E
:100090000050650A0EE100016651EC0F016EFF0E83
:1000A00000016721026E01500001666F02500001DD
:1000B000676F0050670A0EE100016851EC0F016E96
:1000C000FF0E00016921026E01500001686F0250AD
:1000D0000001696F0050690A0EE100016A51EC0FDE
:1000E000016EFF0E00016B21026E015000016A6F6C
:1000F000025000016B6F016A0050620A01E1012A9F
:1001000001500DE10050640A0AE00050660A07E061
:100110000050680A04E000506A0A01E054D001501F
:100120000EE000016251140F016E000E0001632108
:10013000026E01500001626F02500001636F0050B7
:10014000640A0EE100016451140F016E000E0001FB
:100150006521026E01500001646F02500001656F5D
:100160000050660A0EE100016651140F016E000E88
:1001700000016721026E01500001666F025000010C
:10018000676F0050680A0EE100016851140F016E9C
:10019000000E00016921026E01500001686F0250DB
:1001A0000001696F00506A0A0EE100016A51140FE4
:1001B000006E000E00016B21016E005000016A6F9D
:1001C000015000016B6FE4CF02F0E4CF01F0E4CF07
:1001D00000F0E4CFD9FF1200D9CFE5FFE1CFD9FF7E
:1001E00000C0E5FF01C0E5FF02C0E5FF03C0E5FF79
:1001F00004C0E5FF05C0E5FF06C0E5FF07C0E5FF59
:10020000020EDBCF00F0030EDBCF01F0040EDBCFDC
:1002100002F0036A046A03500024056E04500120B2
:10022000066EE86A04BEE8680220076E05C0E9FFB2
:1002300006C0F3FF07508AEC03F0056E0550E56E2B
:1002400031EC02F0E652034A042A03500024056E02
:1002500004500120066EE86A04BEE8680220076EBA
:1002600005C0E9FF06C0F3FF07508AEC03F0056EF6
:100270000550D1E1E4CF07F0E4CF06F0E4CF05F07C
:10028000E4CF04F0E4CF03F0E4CF02F0E4CF01F0D8
:10029000E4CF00F0E4CFD9FF1200D9CFE5FFE1CFE2
:1002A000D9FF00C0E5FF01C0E5FF02C0E5FF03C0C4
:1002B000E5FF020EDBCF00F0030EDBCF01F0040EF2
:1002C000DBCF02F0050EDBCF03F000500001796FA9
:1002D00001507A6F025000017B6F03507C6F000168
:1002E000795100017B03F4CF01F0F3CF00F000500F
:1002F00000017D6F01507E6F0001795100017C0388
:10030000F3CF00F000017A5100017B03F3CF01F03D
:100310000150002600017E51002600507E6F7EC0F5
:10032000F3FF7D51E4CF03F0E4CF02F0E4CF01F01E
:10033000E4CF00F0E4CFD9FF120012EEFFF022EE7E
:10034000FFF0F86AA68EA69C840EF66E070EF76E76
:10035000000EF86E0900F5CF05F00900F5CF06F0A4
:1003600034D00900F5CF00F00900F5CF01F0090005
:10037000F5CF02F009000900F5CFE9FF0900F5CF3C
:10038000EAFF090009000900F5CF03F00900F5CFE5
:1003900004F009000900F6CF07F0F7CF08F0F8CF16
:1003A00009F000C0F6FF01C0F7FF02C0F8FF03D05C
:1003B0000900F5CFEEFF0306FBE20406F9E207C0F1
:1003C000F6FF08C0F7FF09C0F8FF0506CAE20606F7
:1003D000C8E29BEC03F0FFD7D9CFE5FFE1CFD9FF0F
:1003E00000C0E5FF01C0E5FF0001705100016E197A
:1003F00005E10001715100016F1901E002D09D98E3
:1004000028D000017151E56E00017051E56E000EBB
:10041000E56E020EE56E4DEC01F0006EF3CF01F0DB
:10042000040EE126000E0026010E012200C0E9FFA5
:1004300001C0EAFFEECF00F0EFCF01F00050AD6E4B
:100440000001703F02D00001712B0001709F00017C
:10045000716B9E98E4CF01F0E4CF00F0E4CFD9FFB8
:100460001200D9CFE5FFE1CFD9FF00C0E5FF01C001
:10047000E5FF02C0E5FF03C0E5FF020EDBCF00F0A1
:1004800000016F51E56E00016E51E56E000EE56EE4
:10049000020EE56E4DEC01F0016EF3CF02F0040E9A
:1004A000E126000E0126010E0222036A01C0E9FFC7
:1004B00002C0EAFF00C0EEFF03C0EFFF00016E3F85
:1004C00002D000016F2B00016E9F00016F6B9D88B1
:1004D000E4CF03F0E4CF02F0E4CF01F0E4CF00F08A
:1004E000E4CFD9FF1200D9CFE5FFE1CFD9FF00C09B
:1004F000E5FF01C0E5FF02C0E5FF03C0E5FF000125
:100500007351E56E00017251E56E000EE56E020E4C
:10051000E56E4DEC01F0006EF3CF01F0040EE12624
:10052000000E0026070E0122AECF02F0036A00C0C3
:10053000E9FF01C0EAFF02C0EEFF03C0EFFF0001C8
:10054000723F02D00001732B0001729F0001736B98
:100550009E9AE4CF03F0E4CF02F0E4CF01F0E4CFC1
:1005600000F0E4CFD9FF1200D9CFE5FFE1CFD9FFEA
:1005700000C0E5FF01C0E5FF200E0001776FD10E3E
:100580000001786F00016C51E80A04E100016D512F
:10059000030A01E014D0006A8AB0002A016A005000
:1005A0000108006E000E01560050010BF46E8A50D7
:1005B000FE0BF4108A6E00016C6B00016D6B000184
:1005C0006C3F02D000016D2BD10ED76E200ED66E7F
:1005D000F294E4CF01F0E4CF00F0E4CFD9FF1200B1
:1005E000D9CFE5FFE1CFD9FF00C0E5FF01C0E5FFAE
:1005F00002C0E5FF03C0E5FF020EDBCF00F0030EF3
:10060000DBCF01F0040EDBCF02F0050EDBCF03F0F1
:10061000949C948EAC6AAC98AC8AAC82AB6AAB8E7C
:10062000AB880050010BE844E844F46EAC50FB0B7F
:10063000F410AC6E0250AF6EE4CF03F0E4CF02F0E2
:10064000E4CF01F0E4CF00F0E4CFD9FF1200D9CF1E
:10065000E5FFE1CFD9FF00C0E5FF01C0E5FF0001E4
:100660007551E56E00017451E56E000EE56E020EE7
:10067000E56E4DEC01F0006EF3CF01F0040EE126C3
:10068000000E0026070E012200C0E9FF01C0EAFFAC
:10069000EECF00F0EFCF01F00001743F02D0000177
:1006A000752B0001749F0001756B0050E4CF01F0C1
:1006B000E4CF00F0E4CFD9FF1200D8CFE5FFE0CFC0
:1006C000E5FFE56EF3CFE5FFF4CFE5FFE9CFE5FF0A
:1006D000EACFE5FFFACFE5FFFBCFE5FFD9CFE5FF96
:1006E000E1CFD9FFF2A402D0B4EC02F0E4CFD9FFFD
:1006F000E4CFFBFFE4CFFAFFE4CFEAFFE4CFE9FF6A
:10070000E4CFF4FFE4CFF3FFE450E4CFE0FFE4CF25
:10071000D8FF1000E8AE04D0F3CFEAFFEE5012008D
:10072000E8BC02EF00F0E9CFF6FFF3CFF7FFF86E79
:100730000900F5501200080ED56EF28EF28AD58EA1
:10074000926A806A936A816A946A826A956A836A05
:10075000FFD712000000E803E204DC05D606D0074C
:10076000000000000000000000000000F2CFF6FFD3
:10077000F29EA69EA69CE9CFA9FFA680A850F6BE31
:10078000F28E120001005407000060000000170004
:02079000000067
:020000040030CA
:04000000040E3E1E8E
:02000500018177
:00000001FF
